{
  "_format": "hh-sol-artifact-1",
  "contractName": "TokenVendor",
  "sourceName": "contracts/TokenVendor.sol",
  "abi": [
    {
      "inputs": [
        {
          "internalType": "address",
          "name": "_teraToken",
          "type": "address"
        },
        {
          "internalType": "address",
          "name": "_usdcToken",
          "type": "address"
        }
      ],
      "stateMutability": "nonpayable",
      "type": "constructor"
    },
    {
      "anonymous": false,
      "inputs": [
        {
          "indexed": false,
          "internalType": "address",
          "name": "user",
          "type": "address"
        },
        {
          "indexed": false,
          "internalType": "uint256",
          "name": "teraAmount",
          "type": "uint256"
        },
        {
          "indexed": false,
          "internalType": "uint256",
          "name": "usdcAmount",
          "type": "uint256"
        }
      ],
      "name": "SwappedTeraForUsdc",
      "type": "event"
    },
    {
      "anonymous": false,
      "inputs": [
        {
          "indexed": false,
          "internalType": "address",
          "name": "user",
          "type": "address"
        },
        {
          "indexed": false,
          "internalType": "uint256",
          "name": "usdcAmount",
          "type": "uint256"
        },
        {
          "indexed": false,
          "internalType": "uint256",
          "name": "teraAmount",
          "type": "uint256"
        }
      ],
      "name": "SwappedUsdcForTera",
      "type": "event"
    },
    {
      "anonymous": false,
      "inputs": [
        {
          "indexed": false,
          "internalType": "address",
          "name": "buyer",
          "type": "address"
        },
        {
          "indexed": false,
          "internalType": "uint256",
          "name": "amountOfHbar",
          "type": "uint256"
        },
        {
          "indexed": false,
          "internalType": "uint256",
          "name": "amountOfTokens",
          "type": "uint256"
        }
      ],
      "name": "TokensPurchased",
      "type": "event"
    },
    {
      "anonymous": false,
      "inputs": [
        {
          "indexed": false,
          "internalType": "address",
          "name": "seller",
          "type": "address"
        },
        {
          "indexed": false,
          "internalType": "uint256",
          "name": "amountOfTokens",
          "type": "uint256"
        },
        {
          "indexed": false,
          "internalType": "uint256",
          "name": "amountOfHbar",
          "type": "uint256"
        }
      ],
      "name": "TokensSold",
      "type": "event"
    },
    {
      "anonymous": false,
      "inputs": [
        {
          "indexed": false,
          "internalType": "address",
          "name": "buyer",
          "type": "address"
        },
        {
          "indexed": false,
          "internalType": "uint256",
          "name": "amountOfHbar",
          "type": "uint256"
        },
        {
          "indexed": false,
          "internalType": "uint256",
          "name": "amountOfUsdc",
          "type": "uint256"
        }
      ],
      "name": "UsdcPurchased",
      "type": "event"
    },
    {
      "anonymous": false,
      "inputs": [
        {
          "indexed": false,
          "internalType": "address",
          "name": "seller",
          "type": "address"
        },
        {
          "indexed": false,
          "internalType": "uint256",
          "name": "amountOfUsdc",
          "type": "uint256"
        },
        {
          "indexed": false,
          "internalType": "uint256",
          "name": "amountOfHbar",
          "type": "uint256"
        }
      ],
      "name": "UsdcSold",
      "type": "event"
    },
    {
      "inputs": [],
      "name": "HTS_ADDRESS",
      "outputs": [
        {
          "internalType": "address",
          "name": "",
          "type": "address"
        }
      ],
      "stateMutability": "view",
      "type": "function"
    },
    {
      "inputs": [
        {
          "internalType": "address",
          "name": "_token",
          "type": "address"
        }
      ],
      "name": "associateToken",
      "outputs": [],
      "stateMutability": "nonpayable",
      "type": "function"
    },
    {
      "inputs": [],
      "name": "buyTokens",
      "outputs": [],
      "stateMutability": "payable",
      "type": "function"
    },
    {
      "inputs": [],
      "name": "buyUsdc",
      "outputs": [],
      "stateMutability": "payable",
      "type": "function"
    },
    {
      "inputs": [],
      "name": "owner",
      "outputs": [
        {
          "internalType": "address",
          "name": "",
          "type": "address"
        }
      ],
      "stateMutability": "view",
      "type": "function"
    },
    {
      "inputs": [
        {
          "internalType": "uint256",
          "name": "teraAmount",
          "type": "uint256"
        }
      ],
      "name": "sellTera",
      "outputs": [],
      "stateMutability": "nonpayable",
      "type": "function"
    },
    {
      "inputs": [
        {
          "internalType": "uint256",
          "name": "usdcAmount",
          "type": "uint256"
        }
      ],
      "name": "sellUsdc",
      "outputs": [],
      "stateMutability": "nonpayable",
      "type": "function"
    },
    {
      "inputs": [
        {
          "internalType": "uint256",
          "name": "teraAmount",
          "type": "uint256"
        }
      ],
      "name": "swapTeraForUsdc",
      "outputs": [],
      "stateMutability": "nonpayable",
      "type": "function"
    },
    {
      "inputs": [
        {
          "internalType": "uint256",
          "name": "usdcAmount",
          "type": "uint256"
        }
      ],
      "name": "swapUsdcForTera",
      "outputs": [],
      "stateMutability": "nonpayable",
      "type": "function"
    },
    {
      "inputs": [],
      "name": "teraToken",
      "outputs": [
        {
          "internalType": "contract IERC20",
          "name": "",
          "type": "address"
        }
      ],
      "stateMutability": "view",
      "type": "function"
    },
    {
      "inputs": [],
      "name": "tokensPerHbar",
      "outputs": [
        {
          "internalType": "uint256",
          "name": "",
          "type": "uint256"
        }
      ],
      "stateMutability": "view",
      "type": "function"
    },
    {
      "inputs": [],
      "name": "usdcPerHbar",
      "outputs": [
        {
          "internalType": "uint256",
          "name": "",
          "type": "uint256"
        }
      ],
      "stateMutability": "view",
      "type": "function"
    },
    {
      "inputs": [],
      "name": "usdcToken",
      "outputs": [
        {
          "internalType": "address",
          "name": "",
          "type": "address"
        }
      ],
      "stateMutability": "view",
      "type": "function"
    },
    {
      "inputs": [],
      "name": "withdraw",
      "outputs": [],
      "stateMutability": "nonpayable",
      "type": "function"
    },
    {
      "stateMutability": "payable",
      "type": "receive"
    }
  ],
  "bytecode": "0x60806040526064600255606460035534801561001a57600080fd5b5060405161145938038061145983398101604081905261003991610096565b600080546001600160a01b039384166001600160a01b03199182161790915560018054929093169181169190911790915560048054909116331790556100c9565b80516001600160a01b038116811461009157600080fd5b919050565b600080604083850312156100a957600080fd5b6100b28361007a565b91506100c06020840161007a565b90509250929050565b611381806100d86000396000f3fe6080604052600436106100e15760003560e01c80638da5cb5b1161007f578063ae07d0d811610059578063ae07d0d814610233578063d0febe4c14610249578063db4d952314610251578063fbedd0d91461026757600080fd5b80638da5cb5b146101eb578063a7efe3481461020b578063a92a684b1461022b57600080fd5b80633d870747116100bb5780633d870747146101675780634737fa3f1461018757806362856aff146101ab578063650803cd146101cb57600080fd5b806311eac855146100f55780632f94d492146101325780633ccfd60b1461015257600080fd5b366100f0576100ee610287565b005b600080fd5b34801561010157600080fd5b50600154610115906001600160a01b031681565b6040516001600160a01b0390911681526020015b60405180910390f35b34801561013e57600080fd5b506100ee61014d366004611150565b6104c4565b34801561015e57600080fd5b506100ee610733565b34801561017357600080fd5b506100ee610182366004611150565b610863565b34801561019357600080fd5b5061019d60035481565b604051908152602001610129565b3480156101b757600080fd5b506100ee6101c6366004611150565b6109dd565b3480156101d757600080fd5b50600054610115906001600160a01b031681565b3480156101f757600080fd5b50600454610115906001600160a01b031681565b34801561021757600080fd5b506100ee610226366004611169565b610b57565b6100ee610ccd565b34801561023f57600080fd5b5061019d60025481565b6100ee610287565b34801561025d57600080fd5b5061011561016781565b34801561027357600080fd5b506100ee610282366004611150565b610ef0565b600034116102dc5760405162461bcd60e51b815260206004820152601760248201527f53656e64204842415220746f2062757920746f6b656e7300000000000000000060448201526064015b60405180910390fd5b6000600254346102ec9190611199565b600080546040516370a0823160e01b815230600482015292935090916001600160a01b03909116906370a0823190602401602060405180830381865afa15801561033a573d6000803e3d6000fd5b505050506040513d601f19601f8201168201806040525081019061035e91906111c4565b9050818110156103bf5760405162461bcd60e51b815260206004820152602660248201527f54726561737572792068617320696e73756666696369656e7420544552412062604482015265616c616e636560d01b60648201526084016102d3565b6000805460405163a9059cbb60e01b8152336004820152602481018590526001600160a01b039091169063a9059cbb906044016020604051808303816000875af1158015610411573d6000803e3d6000fd5b505050506040513d601f19601f8201168201806040525081019061043591906111dd565b9050806104845760405162461bcd60e51b815260206004820181905260248201527f4661696c656420746f207472616e7366657220746f6b656e20746f207573657260448201526064016102d3565b7f8fafebcaf9d154343dad25669bfa277f4fbacd7ac6b0c4fed522580e040a0f333334856040516104b7939291906111ff565b60405180910390a1505050565b600081116104e45760405162461bcd60e51b81526004016102d390611220565b6000600354826104f49190611257565b90506000600254826105069190611199565b6000546040516370a0823160e01b815230600482015291925082916001600160a01b03909116906370a0823190602401602060405180830381865afa158015610553573d6000803e3d6000fd5b505050506040513d601f19601f8201168201806040525081019061057791906111c4565b10156105c55760405162461bcd60e51b815260206004820152601d60248201527f496e73756666696369656e74205445524120696e20747265617375727900000060448201526064016102d3565b6001546040516323b872dd60e01b81526000916001600160a01b0316906323b872dd906105fa90339030908990600401611279565b6020604051808303816000875af1158015610619573d6000803e3d6000fd5b505050506040513d601f19601f8201168201806040525081019061063d91906111dd565b90508061065c5760405162461bcd60e51b81526004016102d39061129d565b6000805460405163a9059cbb60e01b8152336004820152602481018590526001600160a01b039091169063a9059cbb906044016020604051808303816000875af11580156106ae573d6000803e3d6000fd5b505050506040513d601f19601f820116820180604052508101906106d291906111dd565b9050806106f15760405162461bcd60e51b81526004016102d3906112cb565b7f764616fa95861ee21d5997871ab724b2096b554fc2538a2c4c26c2891138d58e338685604051610724939291906111ff565b60405180910390a15050505050565b6004546001600160a01b0316331461078d5760405162461bcd60e51b815260206004820152601760248201527f4f6e6c79206f776e65722063616e20776974686472617700000000000000000060448201526064016102d3565b47806107d15760405162461bcd60e51b81526020600482015260136024820152724e6f204842415220746f20776974686472617760681b60448201526064016102d3565b604051600090339083908381818185875af1925050503d8060008114610813576040519150601f19603f3d011682016040523d82523d6000602084013e610818565b606091505b505090508061085f5760405162461bcd60e51b81526020600482015260136024820152722330b4b632b2103a379039b2b73210242120a960691b60448201526064016102d3565b5050565b600081116108835760405162461bcd60e51b81526004016102d390611220565b6000600254826108939190611257565b9050804710156108e55760405162461bcd60e51b815260206004820152601d60248201527f496e73756666696369656e74204842415220696e20747265617375727900000060448201526064016102d3565b600080546040516323b872dd60e01b81526001600160a01b03909116906323b872dd9061091a90339030908890600401611279565b6020604051808303816000875af1158015610939573d6000803e3d6000fd5b505050506040513d601f19601f8201168201806040525081019061095d91906111dd565b90508061097c5760405162461bcd60e51b81526004016102d3906112cb565b604051339083156108fc029084906000818181858888f193505050501580156109a9573d6000803e3d6000fd5b507f2dcf9433d75db0d8b1c172641f85e319ffe4ad22e108a95d1847ceb906e5195d3384846040516104b7939291906111ff565b600081116109fd5760405162461bcd60e51b81526004016102d390611220565b600060035482610a0d9190611257565b905080471015610a5f5760405162461bcd60e51b815260206004820152601d60248201527f496e73756666696369656e74204842415220696e20747265617375727900000060448201526064016102d3565b6001546040516323b872dd60e01b81526000916001600160a01b0316906323b872dd90610a9490339030908890600401611279565b6020604051808303816000875af1158015610ab3573d6000803e3d6000fd5b505050506040513d601f19601f82011682018060405250810190610ad791906111dd565b905080610af65760405162461bcd60e51b81526004016102d39061129d565b604051339083156108fc029084906000818181858888f19350505050158015610b23573d6000803e3d6000fd5b507fb88927b3200c77dffe7bfcaa281682c4762cbad3d3923ad0ddc22398e1266a0e3384846040516104b7939291906111ff565b604080513060248201526001600160a01b03831660448083019190915282518083039091018152606490910182526020810180516001600160e01b031663248a35ef60e11b1790529051600091829161016791610bb3916112f9565b6000604051808303816000865af19150503d8060008114610bf0576040519150601f19603f3d011682016040523d82523d6000602084013e610bf5565b606091505b509150915081610c475760405162461bcd60e51b815260206004820152601760248201527f4173736f63696174696f6e2063616c6c206661696c656400000000000000000060448201526064016102d3565b600081806020019051810190610c5d9190611328565b90508060070b601614610cc75760405162461bcd60e51b815260206004820152602c60248201527f4173736f63696174696f6e206661696c65642c20726573706f6e736520213d2060448201526b32322028535543434553532960a01b60648201526084016102d3565b50505050565b60003411610d155760405162461bcd60e51b815260206004820152601560248201527453656e64204842415220746f20627579205553444360581b60448201526064016102d3565b600060035434610d259190611199565b6001546040516370a0823160e01b81523060048201529192506000916001600160a01b03909116906370a0823190602401602060405180830381865afa158015610d73573d6000803e3d6000fd5b505050506040513d601f19601f82011682018060405250810190610d9791906111c4565b905081811015610df85760405162461bcd60e51b815260206004820152602660248201527f54726561737572792068617320696e73756666696369656e7420555344432062604482015265616c616e636560d01b60648201526084016102d3565b60015460405163a9059cbb60e01b8152336004820152602481018490526000916001600160a01b03169063a9059cbb906044016020604051808303816000875af1158015610e4a573d6000803e3d6000fd5b505050506040513d601f19601f82011682018060405250810190610e6e91906111dd565b905080610ebd5760405162461bcd60e51b815260206004820152601f60248201527f4661696c656420746f207472616e73666572205553444320746f20757365720060448201526064016102d3565b7f7dfc6221254cc965f99238d4b3e01601e8d392019eb41c06cc72ba422b0d0dcf3334856040516104b7939291906111ff565b60008111610f105760405162461bcd60e51b81526004016102d390611220565b600060025482610f209190611257565b9050600060035482610f329190611199565b6001546040516370a0823160e01b815230600482015291925082916001600160a01b03909116906370a0823190602401602060405180830381865afa158015610f7f573d6000803e3d6000fd5b505050506040513d601f19601f82011682018060405250810190610fa391906111c4565b1015610ff15760405162461bcd60e51b815260206004820152601d60248201527f496e73756666696369656e74205553444320696e20747265617375727900000060448201526064016102d3565b600080546040516323b872dd60e01b81526001600160a01b03909116906323b872dd9061102690339030908990600401611279565b6020604051808303816000875af1158015611045573d6000803e3d6000fd5b505050506040513d601f19601f8201168201806040525081019061106991906111dd565b9050806110885760405162461bcd60e51b81526004016102d3906112cb565b60015460405163a9059cbb60e01b8152336004820152602481018490526000916001600160a01b03169063a9059cbb906044016020604051808303816000875af11580156110da573d6000803e3d6000fd5b505050506040513d601f19601f820116820180604052508101906110fe91906111dd565b90508061111d5760405162461bcd60e51b81526004016102d39061129d565b7f74dfaed522d22142fa5bdcada2ddc0fe994f0d4addee901cc4b5db8debf2e6f8338685604051610724939291906111ff565b60006020828403121561116257600080fd5b5035919050565b60006020828403121561117b57600080fd5b81356001600160a01b038116811461119257600080fd5b9392505050565b80820281158282048414176111be57634e487b7160e01b600052601160045260246000fd5b92915050565b6000602082840312156111d657600080fd5b5051919050565b6000602082840312156111ef57600080fd5b8151801515811461119257600080fd5b6001600160a01b039390931683526020830191909152604082015260600190565b6020808252601d908201527f416d6f756e74206d7573742062652067726561746572207468616e2030000000604082015260600190565b60008261127457634e487b7160e01b600052601260045260246000fd5b500490565b6001600160a01b039384168152919092166020820152604081019190915260600190565b6020808252601490820152731554d110c81d1c985b9cd9995c8819985a5b195960621b604082015260600190565b60208082526014908201527315115490481d1c985b9cd9995c8819985a5b195960621b604082015260600190565b6000825160005b8181101561131a5760208186018101518583015201611300565b506000920191825250919050565b60006020828403121561133a57600080fd5b81518060070b811461119257600080fdfea264697066735822122002dbf2906faaffa19246a9de2adec8da2332076a16ee1588d9ab9e6cc3cc80f564736f6c63430008140033",
  "linkReferences": {},
  "deployedLinkReferences": {}
}